:020000040800F2
:1000000000A0002039170008211500082715000856
:100010002D150008331500083915000800000000F0
:100020000000000000000000000000003F15000874
:100030004D150008000000005B1500086915000858
:100040008917000889170008891700088917000810
:100050008917000889170008891700088917000800
:1000600089170008891700088917000889170008F0
:1000700089170008891700088917000889170008E0
:1000800089170008891700088917000889170008D0
:1000900075150008891700088917000889170008D6
:1000A00089170008891700088917000889170008B0
:1000B00089170008891700088917000889170008A0
:1000C0008917000889170008891700088917000890
:1000D0008917000889170008891700088917000880
:1000E0008917000889170008891700088917000870
:1000F0008917000889170008891700088917000860
:100100000000000000000000000000008917000847
:10011000891700088917000889170008891700083F
:10012000891700088917000889170008891700082F
:10013000891700088917000800000000000000006F
:1001400089170008891700088917000800000000B7
:10015000000000000000000000000000000000009F
:10016000000000000000000089170008891700083F
:1001700089170008000000000000000000000000D7
:080180000000000089170008CF
:1001900010B5054C237833B9044B13B10448AFF3C1
:1001A00000800123237010BD4403002000000000E4
:1001B00050E8000808B5034B1BB103490348AFF3EF
:1001C000008008BD000000004803002050E800083F
:1001D00001F0FF01102A2BDB10F0070F08D010F8F8
:1001E000013B013A8B422DD010F0070F42B3F6D1FC
:1001F000F0B441EA012141EA014122F007047FF015
:1002000000070023F0E80256083C85EA010586EA6B
:10021000010685FA47F5A3FA87F586FA47F6A5FAA7
:1002200087F68EB9EED1F0BC01F0FF0102F00702B3
:1002300032B110F8013B013A83EA010313B1F8D15E
:100240000020704701387047002D06BF354603383F
:10025000073815F0010F07D1013015F4807F02BF78
:10026000013015F4C03F0130F0BC0138704700BFC9
:10027000034613F8012B002AFBD1181A01387047E6
:1002800081F0004102E000BF83F0004330B54FEA47
:1002900041044FEA430594EA050F08BF90EA020FB4
:1002A0001FBF54EA000C55EA020C7FEA645C7FEA47
:1002B000655C00F0E2804FEA5454D4EB5555B8BF6A
:1002C0006D420CDD2C4480EA020281EA030382EADB
:1002D000000083EA010180EA020281EA0303362D6D
:1002E00088BF30BD11F0004F4FEA01314FF4801C40
:1002F0004CEA113102D0404261EB410113F0004F52
:100300004FEA03334CEA133302D0524263EB430308
:1003100094EA050F00F0A780A4F10104D5F1200EA6
:100320000DDB02FA0EFC22FA05F2801841F1000101
:1003300003FA0EF2801843FA05F359410EE0A5F1D5
:1003400020050EF1200E012A03FA0EFC28BF4CF006
:10035000020C43FA05F3C01851EBE37101F00045BC
:1003600007D54FF0000EDCF1000C7EEB00006EEBC9
:100370000101B1F5801F1BD3B1F5001F0CD3490853
:100380005FEA30004FEA3C0C04F101044FEA4452AA
:1003900012F5800F80F09A80BCF1004F08BF5FEA31
:1003A000500C50F1000041EB045141EA050130BD11
:1003B0005FEA4C0C404141EB0101013C28BFB1F523
:1003C000801FE9D291F0000F04BF01460020B1FA6E
:1003D00081F308BF2033A3F10B03B3F120020CDA41
:1003E0000C3208DD02F1140CC2F10C0201FA0CF01F
:1003F00021FA02F10CE002F11402D8BFC2F1200C84
:1004000001FA02F120FA0CFCDCBF41EA0C01904039
:10041000E41AA2BF01EB0451294330BD6FEA040482
:100420001F3C1CDA0C340EDC04F11404C4F120026D
:1004300020FA04F001FA02F340EA030021FA04F37F
:1004400045EA030130BDC4F10C04C4F1200220FAD6
:1004500002F001FA04F340EA0300294630BD21FA14
:1004600004F0294630BD94F0000F83F4801306BFDA
:1004700081F480110134013D4EE77FEA645C18BFCE
:100480007FEA655C29D094EA050F08BF90EA020F65
:1004900005D054EA000C04BF1946104630BD91EA5D
:1004A000030F1EBF0021002030BD5FEA545C05D160
:1004B0004000494128BF41F0004130BD14F580049F
:1004C0003CBF01F5801130BD01F0004545F0FE4113
:1004D00041F470014FF0000030BD7FEA645C1ABF48
:1004E000194610467FEA655C1CBF0B46024650EA7F
:1004F000013406BF52EA033591EA030F41F40021AB
:1005000030BD00BF90F0000F04BF0021704730B530
:100510004FF4806404F132044FF000054FF0000105
:1005200050E700BF90F0000F04BF0021704730B5C6
:100530004FF4806404F1320410F0004548BF40429B
:100540004FF000013EE700BF42004FEAE2014FEAF0
:1005500031014FEA02701FBF12F07F4393F07F4FCB
:1005600081F06051704732F07F4208BF704793F0CE
:100570007F4F04BF41F40021704730B54FF46074E1
:1005800001F0004521F000411CE700BF50EA0102E4
:1005900008BF704730B54FF000050AE050EA01028D
:1005A00008BF704730B511F0004502D5404261EBFD
:1005B00041014FF4806404F132045FEA915C3FF43E
:1005C000D8AE4FF003025FEADC0C18BF03325FEADB
:1005D000DC0C18BF033202EBDC02C2F1200300FA8C
:1005E00003FC20FA02F001FA03FE40EA0E0021FAB1
:1005F00002F11444BDE600BF70B54FF0FF0C4CF49F
:10060000E06C1CEA11541DBF1CEA135594EA0C0F50
:1006100095EA0C0F00F0DEF82C4481EA030621EA8B
:100620004C5123EA4C5350EA013518BF52EA0335C6
:1006300041F4801143F4801338D0A0FB02CE4FF078
:100640000005E1FB02E506F00042E0FB03E54FF0A8
:100650000006E1FB03569CF0000F18BF4EF0010EA0
:10066000A4F1FF04B6F5007F64F5407404D25FEA9C
:100670004E0E6D4146EB060642EAC62141EA55514F
:100680004FEAC52040EA5E504FEACE2EB4F1FD0C91
:1006900088BFBCF5E06F1ED8BEF1004F08BF5FEA0F
:1006A000500E50F1000041EB045170BD06F00046C1
:1006B00046EA010140EA020081EA0301B4EB5C046E
:1006C000C2BFD4EB0C0541EA045170BD41F4801166
:1006D0004FF0000E013C00F3AB8014F1360FDEBF8B
:1006E000002001F0004170BDC4F10004203C35DA67
:1006F0000C341BDC04F11404C4F1200500FA05F3EA
:1007000020FA04F001FA05F240EA020001F000428A
:1007100021F0004110EBD37021FA04F642EB060100
:100720005EEA430E08BF20EAD37070BDC4F10C042A
:10073000C4F1200500FA04F320FA05F001FA04F2EE
:1007400040EA020001F0004110EBD37041F10001DA
:100750005EEA430E08BF20EAD37070BDC4F12005E5
:1007600000FA05F24EEA020E20FA04F301FA05F24D
:1007700043EA020321FA04F001F0004121FA04F2F5
:1007800020EA020000EBD3705EEA430E08BF20EAC5
:10079000D37070BD94F0000F0FD101F000464000FF
:1007A00041EB010111F4801F08BF013CF7D041EA81
:1007B000060195F0000F18BF704703F00046520085
:1007C00043EB030313F4801F08BF013DF7D043EA56
:1007D0000603704794EA0C0F0CEA135518BF95EA0C
:1007E0000C0F0CD050EA410618BF52EA4306D1D193
:1007F00081EA030101F000414FF0000070BD50EAB2
:10080000410606BF1046194652EA430619D094EA3B
:100810000C0F02D150EA013613D195EA0C0F05D125
:1008200052EA03361CBF104619460AD181EA030179
:1008300001F0004141F0FE4141F470014FF0000031
:1008400070BD41F0FE4141F4780170BD70B54FF0CC
:10085000FF0C4CF4E06C1CEA11541DBF1CEA13554C
:1008600094EA0C0F95EA0C0F00F0A7F8A4EB05042E
:1008700081EA030E52EA03354FEA013100F0888025
:100880004FEA03334FF0805545EA131343EA1263EE
:100890004FEA022245EA111545EA10654FEA0026A3
:1008A0000EF000419D4208BF964244F1FD0404F55C
:1008B000407402D25B084FEA3202B61A65EB0305B8
:1008C0005B084FEA32024FF480104FF4002CB6EB75
:1008D000020E75EB030E22BFB61A754640EA0C00F5
:1008E0005B084FEA3202B6EB020E75EB030E22BF35
:1008F000B61A754640EA5C005B084FEA3202B6EB76
:10090000020E75EB030E22BFB61A754640EA9C0034
:100910005B084FEA3202B6EB020E75EB030E22BF04
:10092000B61A754640EADC0055EA060E18D04FEAC2
:10093000051545EA16754FEA06164FEAC30343EA62
:1009400052734FEAC2025FEA1C1CC0D111F4801F2F
:100950000BD141EA00014FF000004FF0004CB6E728
:1009600011F4801F04BF01430020B4F1FD0C88BFC7
:10097000BCF5E06F3FF6AFAEB5EB030C04BFB6EBD2
:10098000020C5FEA500C50F1000041EB045170BDC5
:100990000EF0004E4EEA113114EB5C04C2BFD4EBF2
:1009A0000C0541EA045170BD41F480114FF0000E76
:1009B000013C90E645EA060E8DE60CEA135594EAF2
:1009C0000C0F08BF95EA0C0F3FF43BAF94EA0C0FF5
:1009D0000AD150EA01347FF434AF95EA0C0F7FF46A
:1009E00025AF104619462CE795EA0C0F06D152EABE
:1009F00003353FF4FDAE1046194622E750EA4106A2
:100A000018BF52EA43067FF4C5AE50EA41047FF4B2
:100A10000DAF52EA43057FF4EBAE12E74FF0FF3C17
:100A200006E000BF4FF0010C02E000BF4FF0010CE8
:100A30004DF804CD4FEA410C7FEA6C5C4FEA430C61
:100A400018BF7FEA6C5C1BD001B050EA410C0CBFB0
:100A500052EA430C91EA030F02BF90EA020F002012
:100A6000704710F1000F91EA030F58BF994208BF79
:100A700090422CBFD8176FEAE37040F00100704736
:100A80004FEA410C7FEA6C5C02D150EA013C07D18D
:100A90004FEA430C7FEA6C5CD6D152EA033CD3D0D8
:100AA0005DF8040B704700BF8446104662468C46D2
:100AB0001946634600E000BF01B5FFF7B7FF002805
:100AC00048BF10F1000F01BD4DF808EDFFF7F4FF2E
:100AD0000CBF012000205DF808FB00BF4DF808EDB9
:100AE000FFF7EAFF34BF012000205DF808FB00BFDC
:100AF0004DF808EDFFF7E0FF94BF012000205DF8FE
:100B000008FB00BF4DF808EDFFF7CEFF94BF0120B2
:100B100000205DF808FB00BF4DF808EDFFF7C4FFAB
:100B200034BF012000205DF808FB00BF4FEA410CF4
:100B30007FEA6C5C02D150EA013C0AD14FEA430CD7
:100B40007FEA6C5C02D152EA033C02D14FF0000014
:100B500070474FF0010070474FEA410212F5001252
:100B600015D211D56FF47873B3EB625212D94FEAF4
:100B7000C12343F0004343EA505311F0004F23FADE
:100B800002F018BF404270474FF00000704750EA33
:100B9000013005D111F0004008BF6FF000407047F0
:100BA0004FF00000704700BF80B483B000AF002357
:100BB0007B6000237B6003E000BF7B6801337B60C8
:100BC0007B68B3F5167FF7D300BF00BF0C37BD4677
:100BD0005DF8047B7047000080B584B000AF034629
:100BE0000A46FB711346BB71FB791AB2BB791B0233
:100BF0001BB213431BB29BB2FB8100220821104899
:100C000001F0F2F8FFF7D0FF07F10E0102230122F5
:100C10000C4805F0D0F8FFF7C7FF07F10E010131CE
:100C200002230122074805F0C6F8012208210448E2
:100C300001F0DAF8FFF7B8FF00BF1037BD4680BDFE
:100C400000100048B403002080B582B000AF034616
:100C50003960FB711346BB71FB7963F03F03DBB274
:100C6000FB71002208210F4801F0BEF8FFF79CFF3E
:100C7000F91D0A2301220C4805F09DF8FFF794FFA7
:100C8000BB799AB2BB793968074805F009FA0122A5
:100C90000821044801F0A8F8FFF786FF00BF0837D5
:100CA000BD4680BD00100048B403002080B586B06A
:100CB00004AF0346FB710B46BB7113467B71FB7996
:100CC0005B00FB71FB7999B2BB799AB20A2302935C
:100CD000012301937B1D00930123044801F046F991
:100CE000034618460837BD4680BD00BF600300209C
:100CF00080B586B004AF3A601A460346FB710B46D6
:100D0000BB7113467B717B79012B06D9FB79192BBB
:100D100003D1BB7963F07F03BB71FB795B00FB718F
:100D2000FB7999B2BB7998B27B799BB27A790292BE
:100D300001933B68009301230246034801F02AFA1D
:100D400000BF0837BD4680BD6003002080B500AFFE
:100D50000A2000F081FD73224F211E20FFF7A6FF1D
:100D6000642000F079FD472220211920FFF79EFF23
:100D7000982223211920FFF799FF4F212020FFF708
:100D80002BFF10212320FFF727FF88212220FFF7C8
:100D900023FF00BF80BD00002DE9B04FCEB00CAFE7
:100DA00000F0F4FC00F01EF900F02EFA00F07EF9DD
:100DB00000F0BCF90AF00EFA00F0F6F9824B1B685D
:100DC0001A68814B1B6842F040021A607F4B1B6817
:100DD0001A687E4B1B6842F001021A60012208214A
:100DE0007B4801F001F8FFF7B1FF002387F80731D6
:100DF000002387F8063101214FF0904000F0DCFF1E
:100E00000346012B13D197F80731002B0FD197F828
:100E10000631013387F8063197F80631022B02D9E3
:100E2000012387F80631012387F807310AE0012101
:100E30004FF0904000F0C0FF0346002B02D100238A
:100E400087F80731642000F007FD97F80631022B80
:100E5000D1D107F1E403062219462820FFF7F4FE5A
:100E600007F1DC02062328211920FFF741FFB7F91B
:100E7000E43007EE903AF8EEE77A9FED567A27EEE7
:100E8000877ADFED556AC7EE267AC7ED407AB7F963
:100E9000E63007EE903AF8EEE77A9FED4E7A27EECD
:100EA000877ADFED4D6AC7EE267AC7ED3F7AB7F94C
:100EB000E83007EE903AF8EEE77A9FED467A27EEB3
:100EC000877ADFED456AC7EE267AC7ED3E7AB7F935
:100ED000DC3007EE903AF8EEE77AB1EE007A27EED2
:100EE000877ADFED3D6AC7EE267AC7ED3D7AB7F91E
:100EF000DE3007EE903AF8EEE77AB1EE007A27EEB0
:100F0000877ADFED356AC7EE267AC7ED3C7AB7F906
:100F1000E03007EE903AF8EEE77AB1EE007A27EE8D
:100F2000877ADFED2D6AC7EE267AC7ED3B7AD7F8D0
:100F30000001FFF709FB04460D46D7F8FC00FFF758
:100F400003FB80468946D7F8F800FFF7FDFA824692
:100F50008B46D7F8F400FFF7F7FAC7E90201D7F894
:100F6000F000FFF7F1FAC7E90001D7F8EC00FFF74E
:100F7000EBFA02460B4607F11400CDE90A2397ED80
:100F8000007B8DED087B97ED027B8DED067BCDE937
:100F900004ABCDE90289CDE90045104AC8210BF028
:100FA000E5FA07F114031846FFF762F903469AB20F
:100FB00007F1140164230A4805F0D6FD4FF40051EF
:100FC000034800F029FF16E7B40300206003002067
:100FD000001000480000FA430000004768E80008DD
:100FE0001804002080B59EB000AF07F150032822FE
:100FF000002118460BF031FB07F13C0300221A6078
:101000005A609A60DA601A613B463C220021184619
:101010000BF023FB03233B654FF4A0237B650023E8
:10102000BB6501233B6610237B660223FB664FF4FE
:1010300080333B674FF480137B6707F150031846FA
:1010400003F0EAF90346002B01D000F077F90F23F3
:10105000FB6302233B6400237B644FF48063BB6427
:101060000023FB6407F13C030121184604F012FA47
:101070000346002B01D000F061F90B4B3B600023CD
:10108000FB600023FB614FF48003BB633B461846C3
:1010900004F036FC0346002B01D000F04FF900BFEE
:1010A0007837BD4680BD00BF2200020080B500AF8A
:1010B0001B4B1C4A1A601A4B1B4A5A60184B0022E1
:1010C0009A60174B0122DA60154B00221A61144B0B
:1010D00000225A61124B00229A61114B0022DA6100
:1010E0000F4B00221A620E4800F0B0FE0346002BA0
:1010F00001D000F023F90021094801F01DFC03464E
:10110000002B01D000F01AF90021054801F05FFC26
:101110000346002B01D000F011F900BF80BD00BFD5
:1011200060030020005400400E09002080B500AF8D
:101130001B4B1C4A1A601A4B4FF482725A60184BB0
:1011400000229A60164B4FF4E062DA60144B0222E0
:101150001A61134B01225A61114B4FF400729A61CC
:101160000F4B1022DA610E4B00221A620C4B002248
:101170005A620B4B00229A62094B0722DA62084B33
:1011800000221A63064B00225A63054804F068FDEA
:101190000346002B01D000F0D1F800BF80BD00BF96
:1011A000B40300200030014080B500AF144B154A55
:1011B0001A60134B4FF416425A60114B00229A608A
:1011C0000F4B0022DA600E4B00221A610C4B0C22EE
:1011D0005A610B4B00229A61094B0022DA61084BDD
:1011E00000221A62064B00225A62054805F06EFC86
:1011F0000346002B01D000F0A1F800BF80BD00BF66
:10120000180400200044004080B58AB000AF07F108
:10121000140300221A605A609A60DA601A61454B22
:101220005B69444A43F400135361424B5B6903F426
:1012300000133B613B693F4B5B693E4A43F400232B
:1012400053613C4B5B6903F40023FB60FB68394B43
:101250005B69384A43F480035361364B5B6903F49E
:101260008003BB60BB68334B5B69324A43F4003395
:101270005361304B5B6903F400337B607B682D4B1B
:101280005B692C4A43F4802353612A4B5B6903F466
:1012900080233B603B6800224FF60871264800F02F
:1012A000A3FD35237B614FF49013BB610023FB61E9
:1012B00007F114031946204800F004FC08237B6161
:1012C0000123BB610023FB6103233B6207F114038D
:1012D0001946194800F0F6FB01237B610023BB612E
:1012E0000023FB6107F1140319464FF0904000F012
:1012F000E9FB4FF47F437B610123BB610023FB616A
:1013000000233B6207F1140319460B4800F0DAFB97
:1013100002237B614FF44413BB610023FB6107F19F
:1013200014031946044800F0CDFB00BF2837BD4622
:1013300080BD00BF001002400010004880B400AF24
:1013400072B600BFFEE7000080B582B000AF0F4B61
:101350009B690E4A43F0010393610C4B9B6903F0B8
:1013600001037B607B68094BDB69084A43F08053CB
:10137000D361064BDB6903F080533B603B68072079
:1013800000F05EFB00BF0837BD4680BD0010024084
:1013900080B58AB000AF786007F1140300221A60AC
:1013A0005A609A60DA601A617B681B68174A934238
:1013B00027D1174B5B69164A43F480235361144BC2
:1013C0005B6903F480233B613B69C0237B6112238B
:1013D000BB610123FB6103233B6204237B6207F1B2
:1013E000140319460B4800F06DFB094BDB69084AF2
:1013F00043F40013D361064BDB6903F40013FB6075
:10140000FB6800BF2837BD4680BD00BF00540040C8
:10141000001002400004004880B58AB000AF786038
:1014200007F1140300221A605A609A60DA601A61A8
:101430007B681B68174A934228D1174B9B69164A51
:1014400043F480539361144B9B6903F480533B61D5
:101450003B69114B5B69104A43F4003353610E4BF7
:101460005B6903F40033FB60FB68E0237B610223CC
:10147000BB610023FB6103233B6205237B6207F111
:10148000140319464FF0904000F01CFB00BF2837B2
:10149000BD4680BD003001400010024080B58AB0DA
:1014A00000AF786007F1140300221A605A609A6056
:1014B000DA601A617B681B68174A934228D1174B80
:1014C000DB69164A43F40033D361144BDB6903F440
:1014D00000333B613B69114B5B69104A43F40033B5
:1014E00053610E4B5B6903F40033FB60FB680C2314
:1014F0007B610223BB610023FB6103233B62072363
:101500007B6207F1140319464FF0904000F0DAFABD
:1015100000BF2837BD4680BD004400400010024097
:1015200080B400AFFEE780B400AFFEE780B400AF48
:10153000FEE780B400AFFEE780B400AFFEE780B402
:1015400000AF00BFBD465DF8047B704780B400AFBC
:1015500000BFBD465DF8047B704780B400AF00BF9C
:10156000BD465DF8047B704780B500AF00F054F9CC
:1015700000BF80BD80B500AF024801F06CFB00BF2A
:1015800080BD00BF7011002080B400AF0123184659
:10159000BD465DF8047B704780B582B000AF7860CF
:1015A00039600BF0ADF8034616221A604FF0FF3396
:1015B00018460837BD4680BD80B582B000AF786060
:1015C0004FF0FF317868FFF7E7FFFEE780B586B0A0
:1015D00000AFF860B9607A6000237B610AE0AFF386
:1015E00000800146BB685A1CBA60CAB21A707B6997
:1015F00001337B617A697B689A42F0DB7B6818462D
:101600001837BD4680BD80B586B000AFF860B960C0
:101610007A6000237B6109E0BB685A1CBA601B78C2
:101620001846AFF300807B6901337B617A697B6880
:101630009A42F1DB7B6818461837BD4680BD80B4FE
:1016400083B000AF78604FF0FF3318460C37BD46CB
:101650005DF8047B704780B483B000AF7860396078
:101660003B684FF400525A60002318460C37BD46C1
:101670005DF8047B704780B483B000AF78600123CD
:1016800018460C37BD465DF8047B704780B485B0C2
:1016900000AFF860B9607A60002318461437BD4681
:1016A0005DF8047B7047000080B586B000AF7860BD
:1016B000144A154BD31A7B617B693B61134B1B6842
:1016C000002B02D1114B124A1A60104B1A687B682A
:1016D00013443A699A4207D20BF012F803460C22DF
:1016E0001A604FF0FF3309E0084B1B68FB60074BA3
:1016F0001A687B681344054A1360FB68184618375C
:10170000BD4680BD00A0002000040000A004002011
:10171000C817002080B400AF064BD3F88830054AC4
:1017200043F47003C2F8883000BFBD465DF8047B07
:10173000704700BF00ED00E0DFF834D0FFF7EAFFAC
:101740000C480D490D4A002302E0D458C45004331C
:10175000C4188C42F9D30A4A0A4C002301E01360F2
:101760000432A242FBD30AF0D1FFFFF715FBFEE7DC
:1017700000A000200000002044030020ACEC000882
:1017800044030020C8170020FEE7000080B500AF2A
:10179000084B1B68074A43F010031360032000F056
:1017A0004FF9002000F008F8FFF7CEFD002318469F
:1017B00080BD00BF0020024080B582B000AF7860DD
:1017C000124B1A68124B1B7819464FF47A73B3FB0D
:1017D000F1F3B2FBF3F3184600F067F90346002B70
:1017E00001D001230EE07B680F2B0AD80022796814
:1017F0004FF0FF3000F02FF9064A7B68136000239A
:1018000000E0012318460837BD4680BD00000020D7
:10181000080000200400002080B400AF064B1B78B5
:101820001A46064B1B681344044A136000BFBD46AA
:101830005DF8047B704700BF08000020A40400206E
:1018400080B400AF034B1B681846BD465DF8047BAF
:10185000704700BFA404002080B584B000AF78605A
:10186000FFF7EEFFB8607B68FB60FB68B3F1FF3FFA
:1018700005D00A4B1B781A46FB681344FB6000BF77
:10188000FFF7DEFF0246BB68D31AFA689A42F7D820
:1018900000BF00BF1037BD4680BD00BF080000205C
:1018A00080B485B000AF78607B6803F00703FB600D
:1018B0000C4BDB68BB60BA684FF6FF031340BB609C
:1018C000FB681A02BB68134343F0BF6343F4003361
:1018D000BB60044ABB68D36000BF1437BD465DF8E7
:1018E000047B704700ED00E080B400AF044BDB6880
:1018F0001B0A03F007031846BD465DF8047B7047DA
:1019000000ED00E080B483B000AF0346FB7197F9AF
:101910000730002B0BDBFB7903F01F02074997F917
:1019200007305B09012000FA02F241F8232000BFD2
:101930000C37BD465DF8047B704700BF00E100E056
:1019400080B483B000AF03463960FB7197F907306C
:10195000002B0ADB3B68DAB20C4997F90730120119
:10196000D2B20B4483F800230AE03B68DAB208499C
:10197000FB7903F00F03043B1201D2B20B441A7639
:1019800000BF0C37BD465DF8047B704700E100E006
:1019900000ED00E080B489B000AFF860B9607A6013
:1019A000FB6803F00703FB61FB69C3F10703042B2A
:1019B00028BF0423BB61FB690433062B02D9FB69F2
:1019C000033B00E000237B614FF0FF32BB6902FA6A
:1019D00003F3DA43BB681A407B699A404FF0FF314A
:1019E0007B6901FA03F3D9437B680B401343184624
:1019F0002437BD465DF8047B7047000080B582B097
:101A000000AF78607B68013BB3F1807F01D3012395
:101A10000FE00A4A7B68013B53600F214FF0FF3013
:101A2000FFF78EFF054B00229A60044B07221A60D5
:101A3000002318460837BD4680BD00BF10E000E017
:101A400080B582B000AF78607868FFF729FF00BFEB
:101A50000837BD4680BD80B586B000AF0346B9608B
:101A60007A60FB7300237B61FFF73EFF78617A6841
:101A7000B9687869FFF78EFF024697F90F30114673
:101A80001846FFF75DFF00BF1837BD4680BD80B523
:101A900082B000AF0346FB7197F907301846FFF795
:101AA00031FF00BF0837BD4680BD80B582B000AFB2
:101AB00078607868FFF7A2FF034618460837BD46EE
:101AC00080BD000080B487B000AF7860396000232B
:101AD0007B6154E13B681A6801217B6901FA03F3D9
:101AE0001340FB60FB68002B00F046813B685B689D
:101AF00003F00303012B05D03B685B6803F003038D
:101B0000022B30D17B689B683B617B695B000322C1
:101B100002FA03F3DB433A6913403B613B68DA683E
:101B20007B695B0002FA03F33A6913433B617B680C
:101B30003A699A607B685B683B6101227B6902FAC3
:101B400003F3DB433A6913403B613B685B681B0965
:101B500003F001027B6902FA03F33A6913433B6124
:101B60007B683A695A603B685B6803F00303032BA8
:101B700017D07B68DB683B617B695B00032202FA5C
:101B800003F3DB433A6913403B613B689A687B6926
:101B90005B0002FA03F33A6913433B617B683A69DD
:101BA000DA603B685B6803F00303022B23D17B6997
:101BB000DA087B68083253F822303B617B6903F016
:101BC00007039B000F2202FA03F3DB433A69134039
:101BD0003B613B681A697B6903F007039B0002FACB
:101BE00003F33A6913433B617B69DA087B68083287
:101BF000396943F822107B681B683B617B695B0095
:101C0000032202FA03F3DB433A6913403B613B686A
:101C10005B6803F003027B695B0002FA03F33A6935
:101C200013433B617B683A691A603B685B6803F465
:101C30004033002B00F0A080584B9B69574A43F07B
:101C400001039361554B9B6903F00103BB60BB68C3
:101C5000534A7B699B08023352F823303B617B690E
:101C600003F003039B000F2202FA03F3DB433A69FC
:101C700013403B617B68B3F1904F19D07B68494AB0
:101C8000934213D07B68484A93420DD07B68474A01
:101C9000934207D07B68464A934201D1042308E06F
:101CA000052306E0032304E0022302E0012300E011
:101CB00000237A6902F00302920093403A691343C9
:101CC0003B6137497B699B0802333A6941F823201D
:101CD000384B9B683B61FB68DB433A6913403B61CF
:101CE0003B685B6803F48013002B03D03A69FB6800
:101CF00013433B612F4A3B6993602E4BDB683B618A
:101D0000FB68DB433A6913403B613B685B6803F463
:101D10000013002B03D03A69FB6813433B61254A4B
:101D20003B69D360234B5B683B61FB68DB433A69EB
:101D300013403B613B685B6803F40033002B03D026
:101D40003A69FB6813433B611A4A3B695360194B7C
:101D50001B683B61FB68DB433A6913403B613B68AE
:101D60005B6803F48033002B03D03A69FB681343AC
:101D70003B61104A3B6913607B6901337B613B68BF
:101D80001A687B6922FA03F3002B7FF4A3AE00BF2D
:101D900000BF1C37BD465DF8047B70470010024051
:101DA000000001400004004800080048000C004802
:101DB000001000480004014080B485B000AF786096
:101DC0000B467B807B681A697B881340002B02D00E
:101DD0000123FB7301E00023FB73FB7B18461437E0
:101DE000BD465DF8047B704780B483B000AF786077
:101DF0000B467B8013467B707B78002B03D07A8860
:101E00007B689A6102E07A887B689A6200BF0C372F
:101E1000BD465DF8047B704780B485B000AF786044
:101E20000B467B807B685B69FB607A88FB681340AC
:101E30001A04FB68D9437B880B401A437B689A617C
:101E400000BF1437BD465DF8047B704780B582B093
:101E500000AF78607B68002B01D1012381E07B68B3
:101E600093F84130DBB2002B06D17B68002283F867
:101E700040207868FFF78CFA7B68242283F84120A1
:101E80007B681B681A687B681B6822F001021A6075
:101E90007B685A687B681B6822F070621A617B68F5
:101EA0001B689A687B681B6822F400429A607B6812
:101EB000DB68012B07D17B689A687B681B6842F45A
:101EC00000429A6006E07B689A687B681B6842F46F
:101ED00004429A607B68DB68022B04D17B681B6834
:101EE0004FF400625A607B681B685B687A6812680E
:101EF00043F0007343F4004353607B681B68DA6867
:101F00007B681B6822F40042DA607B681A697B6890
:101F10005B6942EA03017B689B691A027B681B6864
:101F20000A43DA607B68D9697B681A6A7B681B6838
:101F30000A431A607B681B681A687B681B6842F05A
:101F400001021A607B6800225A647B68202283F8B1
:101F500041207B6800221A637B68002283F84220BC
:101F6000002318460837BD4680BD000080B588B004
:101F700002AFF860084611461A4603467B810B46BD
:101F80003B811346FB80FB6893F84130DBB2202B8A
:101F900040F0F9803B6A002B02D0BB8C002B05D1AE
:101FA000FB684FF400725A640123EDE0FB6893F87C
:101FB0004030012B01D10223E6E0FB68012283F8C7
:101FC0004020FFF73DFC78617B69009319230122D3
:101FD0004FF40041F86800F0C3FA0346002B01D02B
:101FE0000123D1E0FB68212283F84120FB684022D5
:101FF00083F84220FB6800225A64FB683A6A5A62FE
:10200000FB68BA8C5A85FB6800225A63F8883A89C3
:1020100079897B690193BB6A00930346F86800F0F5
:10202000D3F90346002B05D0FB68002283F840203B
:102030000123A9E0FB685B8D9BB2FF2B0ED9FB68E7
:10204000FF221A85FB681B8DDAB279890023009381
:102050004FF08073F86800F03DFC0FE0FB685B8D8B
:102060009AB2FB681A85FB681B8DDAB27989002366
:1020700000934FF00073F86800F02CFC7A69B96A9D
:10208000F86800F0BCFA0346002B01D001237BE086
:10209000FB685B6A1A78FB681B689A62FB685B6A7C
:1020A0005A1CFB685A62FB685B8D9BB2013B9AB27B
:1020B000FB685A85FB681B8D013B9AB2FB681A8549
:1020C000FB685B8D9BB2002B34D0FB681B8D002B13
:1020D00030D17B690093BB6A00228021F86800F050
:1020E0003FFA0346002B01D001234DE0FB685B8DD6
:1020F0009BB2FF2B0ED9FB68FF221A85FB681B8D54
:10210000DAB27989002300934FF08073F86800F009
:10211000E1FB0FE0FB685B8D9AB2FB681A85FB68F8
:102120001B8DDAB27989002300934FF00073F868B1
:1021300000F0D0FBFB685B8D9BB2002B9ED17A69CF
:10214000B96AF86800F0A2FA0346002B01D0012317
:102150001AE0FB681B682022DA61FB681B6859687B
:10216000FB681A680A4B0B405360FB68202283F817
:102170004120FB68002283F84220FB68002283F89C
:102180004020002300E0022318461837BD4680BDDA
:1021900000E800FE80B588B002AFF860084611463E
:1021A0001A4603467B810B463B811346FB80FB6846
:1021B00093F84130DBB2202B40F0FD803B6A002BCE
:1021C00002D0BB8C002B05D1FB684FF400725A641F
:1021D0000123F1E0FB6893F84030012B01D1022389
:1021E000EAE0FB68012283F84020FFF729FB7861D1
:1021F0007B690093192301224FF40041F86800F035
:10220000AFF90346002B01D00123D5E0FB68222261
:1022100083F84120FB68402283F84220FB680022BB
:102220005A64FB683A6A5A62FB68BA8C5A85FB6842
:1022300000225A63F8883A8979897B690193BB6ADD
:1022400000930346F86800F013F90346002B05D00D
:10225000FB68002283F840200123ADE0FB685B8D22
:102260009BB2FF2B0ED9FB68FF221A85FB681B8DE2
:10227000DAB27989524B00934FF08073F86800F01E
:1022800029FB0FE0FB685B8D9AB2FB681A85FB683F
:102290001B8DDAB279894A4B00934FF00073F868CE
:1022A00000F018FB7B690093BB6A00220421F868E8
:1022B00000F056F90346002B01D001237CE0FB68B7
:1022C0001B685A6AFB685B6AD2B21A70FB685B6A69
:1022D0005A1CFB685A62FB681B8D013B9AB2FB6873
:1022E0001A85FB685B8D9BB2013B9AB2FB685A85ED
:1022F000FB685B8D9BB2002B34D0FB681B8D002BE1
:1023000030D17B690093BB6A00228021F86800F01D
:1023100027F90346002B01D001234DE0FB685B8DBC
:102320009BB2FF2B0ED9FB68FF221A85FB681B8D21
:10233000DAB27989002300934FF08073F86800F0D7
:10234000C9FA0FE0FB685B8D9AB2FB681A85FB68DF
:102350001B8DDAB27989002300934FF00073F8687F
:1023600000F0B8FAFB685B8D9BB2002B9AD17A69BA
:10237000B96AF86800F08AF90346002B01D00123FE
:102380001AE0FB681B682022DA61FB681B68596849
:10239000FB681A680B4B0B405360FB68202283F8E4
:1023A0004120FB68002283F84220FB68002283F86A
:1023B0004020002300E0022318461837BD4680BDA8
:1023C0000024008000E800FE80B586B002AFF8600F
:1023D000084611461A4603467B810B463B8113464D
:1023E000FB80FB88DAB27989204B00934FF0807331
:1023F000F86800F06FFAFA69B969F86800F0FFF858
:102400000346002B01D001232CE0FB88012B05D1D2
:102410003B89DAB2FB681B689A6215E03B891B0AAC
:102420009BB2DAB2FB681B689A62FA69B969F8680C
:1024300000F0E5F80346002B01D0012312E03B89B0
:10244000DAB2FB681B689A62FB690093BB690022E1
:102450008021F86800F084F80346002B01D00123A6
:1024600000E0002318461037BD4680BD00200080E4
:1024700080B586B002AFF860084611461A4603469A
:102480007B810B463B811346FB80FB88DAB279895E
:10249000204B00930023F86800F01CFAFA69B96930
:1024A000F86800F0ACF80346002B01D001232CE0C3
:1024B000FB88012B05D13B89DAB2FB681B689A6265
:1024C00015E03B891B0A9BB2DAB2FB681B689A6273
:1024D000FA69B969F86800F092F80346002B01D058
:1024E000012312E03B89DAB2FB681B689A62FB6940
:1024F0000093BB6900224021F86800F031F80346E0
:10250000002B01D0012300E0002318461037BD4600
:1025100080BD00BF0020008080B483B000AF786031
:102520007B681B689B6903F00203022B03D17B6865
:102530001B6800229A627B681B689B6903F0010399
:10254000012B07D07B681B689A697B681B6842F087
:1025500001029A6100BF0C37BD465DF8047B7047ED
:1025600080B584B000AFF860B9603B601346FB7182
:1025700031E03B68B3F1FF3F2DD0FFF761F9024630
:10258000BB69D31A3A689A4202D33B68002B22D126
:10259000FB681B689A69BB681340BA689A420CBF13
:1025A00001230023DBB21A46FB799A4213D1FB6860
:1025B0005B6C43F02002FB685A64FB68202283F8BE
:1025C0004120FB68002283F84220FB68002283F848
:1025D000402001230FE0FB681B689A69BB68134029
:1025E000BA689A420CBF01230023DBB21A46FB797A
:1025F0009A42BED0002318461037BD4680BD80B534
:1026000084B000AFF860B9607A6033E07A68B96886
:10261000F86800F07FF80346002B01D0012331E079
:10262000BB68B3F1FF3F25D0FFF70AF902467B688C
:10263000D31ABA689A4202D3BB68002B1AD1FB683E
:102640001B689B6903F00203022B13D0FB685B6CD1
:1026500043F02002FB685A64FB68202283F8412083
:10266000FB68002283F84220FB68002283F84020A8
:10267000012307E0FB681B689B6903F00203022B40
:10268000C4D1002318461037BD4680BD80B584B044
:1026900000AFF860B9607A602FE07A68B968F868CE
:1026A00000F038F80346002B01D001232DE0FFF79E
:1026B000C7F802467B68D31ABA689A4202D3BB684D
:1026C000002B1AD1FB681B689B6903F02003202BA9
:1026D00013D0FB685B6C43F02002FB685A64FB6814
:1026E000202283F84120FB68002283F84220FB6807
:1026F000002283F84020012307E0FB681B689B69E8
:1027000003F02003202BC8D1002318461037BD4604
:1027100080BD000080B58AB000AFF860B9607A6013
:10272000002387F82730FB681B689B69BB61002387
:102730003B627B68FB61BB6903F01003002B68D030
:10274000FB681B681022DA6149E0BB68B3F1FF3F08
:1027500045D0FFF775F80246FB69D31ABA689A426A
:1027600002D3BB68002B3AD1FB681B685B6803F49B
:1027700080437B61FB6893F84230FB74FB681B6805
:102780009B6903F40043B3F5004F21D17B69B3F596
:10279000804F1DD0FB7C202B1AD0FB681B685A6829
:1027A000FB681B6842F480425A60FFF749F8F86101
:1027B0000EE0FFF745F80246FB69D31A192B07D93B
:1027C0003B6A43F020033B62012387F8273006E091
:1027D000FB681B689B6903F02003202BE9D1FB6891
:1027E0001B689B6903F02003202B03D097F8273048
:1027F000002BAAD097F82730002B03D1FB681B6869
:102800002022DA613B6A43F004033B62012387F82C
:102810002730FB681B689B69BB61BB6903F480734D
:10282000002B0BD03B6A43F001033B62FB681B6843
:102830004FF48072DA61012387F82730BB6903F413
:102840008063002B0BD03B6A43F008033B62FB68BC
:102850001B684FF48062DA61012387F82730BB6977
:1028600003F40073002B0BD03B6A43F002033B627E
:10287000FB681B684FF40072DA61012387F8273088
:1028800097F82730002B1CD0F868FFF745FEFB684F
:102890001B685968FB681A680D4B0B405360FB6856
:1028A0005A6C3B6A1A43FB685A64FB68202283F81F
:1028B0004120FB68002283F84220FB68002283F855
:1028C000402097F8273018462837BD4680BD00BF06
:1028D00000E800FE80B487B000AFF8607B600B4674
:1028E0007B8113467B727B89C3F309027B7A1B04CD
:1028F00003F47F031A437B681A433B6A134323F0B4
:1029000000437B61FB681B685A683B6A5B0D03F4FC
:102910008061084B0B43DB4302EA0301FB681B6841
:102920007A690A435A6000BF1C37BD465DF8047BD4
:10293000704700BFFF63FF0380B483B000AF7860CF
:1029400039607B6893F84130DBB2202B38D17B684B
:1029500093F84030012B01D1022332E07B68012241
:1029600083F840207B68242283F841207B681B6821
:102970001A687B681B6822F001021A607B681B687A
:102980001A687B681B6822F480521A607B681B6897
:1029900019687B681B683A680A431A607B681B6881
:1029A0001A687B681B6842F001021A607B6820226B
:1029B00083F841207B68002283F84020002300E058
:1029C000022318460C37BD465DF8047B704780B47F
:1029D00085B000AF786039607B6893F84130DBB236
:1029E000202B39D17B6893F84030012B01D1022391
:1029F00033E07B68012283F840207B68242283F83F
:102A000041207B681B681A687B681B6822F0010202
:102A10001A607B681B681B68FB60FB6823F47063AB
:102A2000FB603B681B02FA681343FB607B681B6812
:102A3000FA681A607B681B681A687B681B6842F03A
:102A400001021A607B68202283F841207B68002203
:102A500083F84020002300E0022318461437BD46C7
:102A60005DF8047B7047F0B58BB006AF78607B688B
:102A7000002B01D10123C4E07B6893F8A932DBB2BB
:102A8000002B06D17B68002283F8A822786808F022
:102A90006FFD7B68032283F8A9227B681B681846B8
:102AA00004F0ECFC0023FB7340E0FB7B79685A1CCC
:102AB00013469B001344DB000B44013301221A70C0
:102AC000FB7B79685A1C13469B001344DB000B44C4
:102AD000FA7B1A70FB7B79685A1C13469B001344DF
:102AE000DB000B44033300221A70FA7B796813462B
:102AF0009B001344DB000B44383300221A60FA7B3E
:102B0000796813469B001344DB000B443C330022DE
:102B10001A60FA7B796813469B001344DB000B4470
:102B2000403300221A60FB7B0133FB73FA7B7B6826
:102B30005B689A42B9D30023FB7344E0FA7B79685F
:102B400013469B001344DB000B4403F2691300227D
:102B50001A70FA7B796813469B001344DB000B4420
:102B600003F5B473FA7B1A70FA7B796813469B00FD
:102B70001344DB000B4403F26B1300221A70FA7B40
:102B8000796813469B001344DB000B4403F5BC73C8
:102B900000221A60FA7B796813469B001344DB001D
:102BA0000B4403F5BE7300221A60FA7B7968134662
:102BB0009B001344DB000B4403F5C07300221A6032
:102BC000FB7B0133FB73FA7B7B685B689A42B5D36E
:102BD0007B681B683B607E686D4606F110040FCC75
:102BE0000FC523682B60331D0ECB386804F061FCE1
:102BF0007B68002283F824207B68012283F8A922C5
:102C0000002318461437BD46F0BD80B582B000AF32
:102C100078607B6893F8A832012B01D1022316E07B
:102C20007B68012283F8A8227B681B68184604F0A1
:102C30000EFC0121786808F039FF7B681B68184694
:102C400006F0CDFE7B68002283F8A82200231846F8
:102C50000837BD4680BD80B584B000AF78607B6822
:102C60001B68184606F0C6FEF860FB6803F40043D4
:102C7000002B03D0786800F0B2FABDE0FB6803F4E3
:102C80008063002B13D07B681B68B3F844309AB282
:102C90007B681B6822F4806292B2A3F844207868B3
:102CA00008F007FD0021786800F0A9F8A4E0FB68AF
:102CB00003F48043002B0CD07B681B68B3F84430CE
:102CC0009AB27B681B6822F4804292B2A3F8442037
:102CD00092E0FB6803F40053002B0CD07B681B6868
:102CE000B3F844309AB27B681B6822F4005292B267
:102CF000A3F8442080E0FB6803F48053002B27D026
:102D00007B681B68B3F840309AB27B681B6822F07E
:102D1000040292B2A3F840207B681B68B3F84030ED
:102D20009AB27B681B6822F0080292B2A3F8402096
:102D3000786808F0F7FC7B681B68B3F844309AB2F7
:102D40007B681B6822F4805292B2A3F8442053E0BF
:102D5000FB6803F40063002B27D07B681B68B3F883
:102D600040309AB27B681B6842F0080292B2A3F826
:102D700040207B681B68B3F844309AB27B681B68BC
:102D800022F4006292B2A3F844207B681B68B3F877
:102D900040309AB27B681B6842F0040292B2A3F8FA
:102DA0004020786808F0A4FC26E0FB6803F4007378
:102DB000002B0FD07B681B68B3F844309AB27B6855
:102DC0001B6822F4007292B2A3F84420786808F0DD
:102DD00062FC11E0FB6803F48073002B0CD07B686D
:102DE0001B68B3F844309AB27B681B6822F4807287
:102DF00092B2A3F8442000BF1037BD4680BD80B515
:102E000082B000AF78600B46FB707B6893F8A83205
:102E1000012B01D1022313E07B68012283F8A82251
:102E20007B68FA7883F824207B681B68FA7811465F
:102E3000184606F0C0FD7B68002283F8A822002314
:102E400018460837BD4680BD80B584B000AF7860B5
:102E5000084611461A460346FB700B463B80134654
:102E6000BB700023FB7297F90330002B0EDAFB785E
:102E700003F007035A1C13469B001344DB007A68D7
:102E80001344FB60FB6801225A700EE0FB7803F0EC
:102E9000070213469B001344DB0003F5B4737A6802
:102EA0001344FB60FB6800225A70FB7803F00703B1
:102EB000DAB2FB681A703A88FB681A61FB68BA7864
:102EC000DA70BB78022B02D1FB6800221A717B6892
:102ED00093F8A832012B01D102230EE07B68012276
:102EE00083F8A8227B681B68F968184604F002FB87
:102EF0007B68002283F8A822FB7A18461037BD466B
:102F000080BD80B584B000AF78600B46FB7097F948
:102F10000330002B0EDAFB7803F007035A1C13462C
:102F20009B001344DB007A681344FB60FB680122BA
:102F30005A700EE0FB7803F0070213469B0013441F
:102F4000DB0003F5B4737A681344FB60FB6800226E
:102F50005A70FB7803F00703DAB2FB681A707B68DB
:102F600093F8A832012B01D102230EE07B680122E5
:102F700083F8A8227B681B68F968184604F07EFE77
:102F80007B68002283F8A822002318461037BD462C
:102F900080BD80B586B000AFF8607A603B600B46BC
:102FA000FB72FB7A03F0070213469B001344DB001D
:102FB00003F5B473FA6813447B617B697A685A61DC
:102FC0007B693A689A617B690022DA617B69002239
:102FD0005A70FB7A03F00703DAB27B691A70FB6858
:102FE0001B687969184605F036F80023184618372B
:102FF000BD4680BD80B483B000AF78600B46FB70E7
:10300000FB7803F00702796813469B001344DB004A
:103010000B4403F5C2731B6818460C37BD465DF8B8
:10302000047B704780B586B000AFF8607A603B6083
:103030000B46FB72FB7A03F007035A1C13469B00F6
:103040001344DB00FA6813447B617B697A685A6138
:103050007B693A689A617B69012283F824207B6945
:103060003A681A627B690022DA617B6901225A7030
:10307000FB7A03F00703DAB27B691A70FB681B68FE
:103080007969184604F0E7FF002318461837BD4653
:1030900080BD80B584B000AF78600B46FB70FB78D4
:1030A00003F007027B685B689A4201D901233EE086
:1030B00097F90330002B0EDAFB7803F007035A1C54
:1030C00013469B001344DB007A681344FB60FB68E3
:1030D00001225A700CE0FA7813469B001344DB007F
:1030E00003F5B4737A681344FB60FB6800225A70DE
:1030F000FB6801229A70FB7803F00703DAB2FB68E1
:103100001A707B6893F8A832012B01D102230EE0DC
:103110007B68012283F8A8227B681B68F96818463F
:1031200006F04AFB7B68002283F8A8220023184699
:103130001037BD4680BD80B584B000AF78600B46C7
:10314000FB70FB7803F00F027B685B689A4201D941
:10315000012340E097F90330002B0EDAFB7803F0EF
:1031600007035A1C13469B001344DB007A68134480
:10317000FB60FB6801225A700EE0FB7803F0070247
:1031800013469B001344DB0003F5B4737A681344C1
:10319000FB60FB6800225A70FB6800229A70FB7883
:1031A00003F00703DAB2FB681A707B6893F8A83261
:1031B000012B01D102230EE07B68012283F8A822B3
:1031C0007B681B68F968184606F047FB7B6800229D
:1031D00083F8A822002318461037BD4680BD80B56D
:1031E00096B000AF7860BFE37B681B68B3F84430EB
:1031F000A7F84E30B7F84E30DBB203F00F0387F874
:103200004D3097F84D30002B40F07981B7F84E30B3
:1032100003F01003002B52D17B681B681B889BB204
:1032200023F4E14323F07003FB817B681A68FB8978
:103230006FEA43436FEA53439BB213807B682833A2
:103240007B657B681B68B3F850309BB21A467B6D78
:103250001B78DB00134402335B007A681268134466
:1032600003F580631B88C3F309027B6DDA617B6D14
:103270005A697B6DDB691A447B6D5A61002178685D
:1032800008F0EFF97B6893F82430DBB2002B00F0F4
:103290006B837B6D9B69002B40F066837B6893F8A2
:1032A0002430DBB263F07F03DAB27B681B6892B232
:1032B000A3F84C207B68002283F8242054E37B6829
:1032C00003F5B4737B657B681B681B88A7F84A30DD
:1032D000B7F84A3003F40063002B34D07B681B68D6
:1032E000B3F850309BB21A467B6D1B78DB00134459
:1032F00006335B007A681268134403F580631B8809
:10330000C3F309027B6DDA617B6818687B6803F59B
:103310002C717B6DDA887B6DDB699BB206F0C0FB9C
:103320007B681B681B889AB240F68F7313403B8200
:103330007B681B683A8A42F0800292B21A807868F1
:1033400008F062F910E3B7F94A30002B80F20C83E1
:103350007B681B681B889AB240F68F731340FB830F
:103360007B681B68FA8B42F0800292B21A807B68FD
:103370001B68B3F850309BB21A467B6D1B78DB009C
:10338000134406335B007A681268134403F58063C4
:103390001B88C3F309027B6DDA617B6DDB69002B4F
:1033A00019D07B6D5B69002B15D07B6818687B6D2D
:1033B00059697B6DDA887B6DDB699BB206F070FB27
:1033C0007B6D5A697B6DDB691A447B6D5A61002104
:1033D000786808F02BF97B681B681B88A7F84A30CF
:1033E000B7F84A3003F40063002B40F0BD82B7F811
:1033F0004A3003F44053B3F5405F00F0B5827B6878
:103400001B68BB617B681B68B3F850309BB21A46DF
:10341000BB691344BB61BB6903F20C437B617B69ED
:103420001B889BB2C3F309039AB27B691A807B6D38
:103430001B693E2B1DD97B6D1B695B097B647B6D12
:103440001B6903F01F03002B02D17B6C013B7B64E3
:103450007B691B889AB27B6C9BB29B029BB2134325
:103460009BB26FEA43436FEA53439AB27B691A8077
:1034700026E07B6D1B69002B0AD17B691B889BB200
:103480006FEA43436FEA53439AB27B691A8017E0AD
:103490007B6D1B695B087B647B6D1B6903F001031B
:1034A000002B02D07B6C01337B647B691B889AB252
:1034B0007B6C9BB29B029BB213439AB27B691A80CE
:1034C0007B681B681B889BB223F4804323F0700346
:1034D0007B827B8A83F480537B827B8A83F40053D4
:1034E0007B827B681A687B8A43F07F4343F47F03C7
:1034F00043F4004343F080039BB2138034E27B68C3
:103500001B681A4697F84D309B0013441B88A7F898
:103510004A30B7F94A30002B80F2FC807B681B6888
:103520001A4697F84D309B0013441B889AB240F618
:103530008F731340A7F848307B681B681A4697F8CA
:103540004D309B001344B7F8482042F0800292B2FD
:103550001A8097F84D2013469B001344DB0003F5B7
:10356000B4737A6813447B657B6D1B7B002B25D17C
:103570007B681B68B3F850309BB21A467B6D1B7892
:10358000DB00134406335B007A681268134403F5CA
:1035900080631B88C3F30903A7F85030B7F8503095
:1035A000002B00F092807B6818687B6D59697B6DF9
:1035B000DA88B7F8503006F073FA86E07B6DDB7876
:1035C000022B0AD1B7F84A301A46796D786800F0B4
:1035D000D9F90346A7F8503077E07B681B681A4694
:1035E0007B6D1B789B0013441B889BB223F4E04344
:1035F00023F07003A7F852307B681B681A467B6D76
:103600001B789B001A44B7F8523043F07F4343F4D1
:103610007F0343F4004343F0C0039BB213807B68F5
:103620001B681A467B6D1B789B0013441B889BB25A
:1036300003F48043002B24D07B681B68B3F8503020
:103640009BB21A467B6D1B78DB00134402335B0090
:103650007A681268134403F580631B88C3F3090377
:10366000A7F85030B7F85030002B2ED07B68186880
:103670007B6D59697B6D1A89B7F8503006F010FAE6
:1036800023E07B681B68B3F850309BB21A467B6D11
:103690001B78DB00134406335B007A68126813441E
:1036A00003F580631B88C3F30903A7F85030B7F80C
:1036B0005030002B09D07B6818687B6D59697B6D91
:1036C0005A89B7F8503006F0EBF97B6DDA69B7F834
:1036D00050301A447B6DDA617B6D5A69B7F850300F
:1036E0001A447B6D5A617B6D9B69002B05D0B7F83E
:1036F00050207B6D1B699A4206D27B6D1B78194660
:10370000786807F093FF05E07B681B68796D1846C1
:1037100004F0A1FCB7F84A3003F08003002B00F05E
:10372000238197F84D305A1C13469B001344DB004D
:103730007A6813447B657B681B681A4697F84D309E
:103740009B0013441B889BB223F4E14323F07003D6
:10375000A7F842307B681B681A4697F84D309B00EB
:103760001A44B7F842306FEA43436FEA53439BB2BF
:1037700013807B6DDB78012B40F0A2807B6D0022F3
:103780009A617B6D1B7B002B00F09380B7F84A3069
:1037900003F04003002B46D07B6D5B78002B26D1D5
:1037A0007B681B687B627B681B68B3F850309BB2F8
:1037B0001A467B6A13447B627B6D1B781A017B6A15
:1037C000134403F204433B623B6A1B889BB2C3F37E
:1037D00009039AB23B6A1A803B6A1B889BB26FEA64
:1037E00043436FEA53439AB23B6A1A8061E07B6DB0
:1037F0005B78012B5DD17B681B68FB627B681B6873
:10380000B3F850309BB21A46FB6A1344FB627B6DDF
:103810001B781A01FB6A134403F20443BB62BB6AC0
:1038200000221A8045E07B681B68FB637B6D5B7838
:10383000002B26D17B681B687B637B681B68B3F811
:1038400050309BB21A467B6B13447B637B6D1B78B5
:103850001A017B6B134403F20C433B633B6B1B88E5
:103860009BB2C3F309039AB23B6B1A803B6B1B8874
:103870009BB26FEA43436FEA53439AB23B6B1A80A1
:1038800017E07B6D5B78012B13D17B681B68B3F865
:1038900050309BB21A46FB6B1344FB637B6D1B7865
:1038A0001A01FB6B134403F20C43BB63BB6B002296
:1038B0001A807B6D1B781946786807F0D2FE53E0BA
:1038C000B7F84A3003F48073002B46D17B681B683D
:1038D000B3F850309BB21A467B6D1B78DB00134463
:1038E00002335B007A681268134403F580631B8817
:1038F000C3F30903A7F840307B6D9A69B7F84030ED
:103900009A4207D97B6D9A69B7F84030D21A7B6D1D
:103910009A6102E07B6D00229A617B6D9B69002BAE
:1039200006D17B6D1B781946786807F09AFE1BE07C
:103930007B6D5A69B7F840301A447B6D5A617B6DD4
:10394000DA69B7F840301A447B6DDA617B681B682E
:10395000796D184604F07FFB06E0B7F84A301A4646
:10396000796D786800F01BF97B681B68B3F8443008
:103970009BB21BB2002BFFF637AC0023184658371A
:10398000BD4680BD80B588B000AFF860B960134611
:10399000FB80FB8803F48043002B7ED0FB681B6810
:1039A000B3F850309BB21A46BB681B78DB00134457
:1039B00002335B00FA681268134403F580631B88C6
:1039C000C3F309037B83BB689A697B8B9A4206D356
:1039D000BB689A697B8BD21ABB689A6102E0BB68AC
:1039E00000229A61BB689B69002B23D1FB681B688E
:1039F0001A46BB681B789B0013441B889BB223F4B8
:103A0000804323F070033B833B8B83F400533B8361
:103A1000FB681B681A46BB681B789B001A443B8BEB
:103A200043F07F4343F47F0343F4004343F08003B8
:103A30009BB21380FB8803F04003002B1FD0FB6870
:103A40001B681A46BB681B789B0013441B889BB2FB
:103A500023F4E04323F07003FB82FB681B681A46E3
:103A6000BB681B789B001A44FB8A43F07F4343F4F6
:103A70007F0343F4004343F0C0039BB213807B8B6E
:103A8000002B00F08780FB681868BB685969BB6829
:103A90001A897B8B06F004F87CE0FB681B68B3F89E
:103AA00050309BB21A46BB681B78DB0013440633C8
:103AB0005B00FA681268134403F580631B88C3F344
:103AC00009037B83BB689A697B8B9A4206D3BB68E8
:103AD0009A697B8BD21ABB689A6102E0BB680022AC
:103AE0009A61BB689B69002B23D1FB681B681A464F
:103AF000BB681B789B0013441B889BB223F4804354
:103B000023F07003FB83FB8B83F40053FB83FB6880
:103B10001B681A46BB681B789B001A44FB8B43F05A
:103B20007F4343F47F0343F4004343F080039BB29D
:103B30001380FB8803F04003002B1FD1FB681B6838
:103B40001A46BB681B789B0013441B889BB223F466
:103B5000E04323F07003BB83FB681B681A46BB6815
:103B60001B789B001A44BB8B43F07F4343F47F03D5
:103B700043F4004343F0C0039BB213807B8B002BC4
:103B800008D0FB681868BB685969BB685A897B8B89
:103B900005F086FF7B8B18462037BD4680BD80B57B
:103BA000A4B000AFF860B9601346FB80FB8803F057
:103BB0004003002B00F0DD81FB681B68B3F8503038
:103BC0009BB21A46BB681B78DB00134402335B00D0
:103BD000FA681268134403F580631B88C3F3090372
:103BE000A7F88630BB689A69B7F886309A4207D939
:103BF000BB689A69B7F88630D21ABB689A6102E04E
:103C0000BB6800229A61BB689B69002B40F0B980B9
:103C1000BB685B78002B26D1FB681B68FB62FB68E6
:103C20001B68B3F850309BB21A46FB6A1344FB6220
:103C3000BB681B781A01FB6A134403F20443BB629E
:103C4000BB6A1B889BB2C3F309039AB2BB6A1A8092
:103C5000BB6A1B889BB26FEA43436FEA53439AB235
:103C6000BB6A1A801AE0BB685B78012B16D1FB682F
:103C70001B687B63FB681B68B3F850309BB21A4625
:103C80007B6B13447B63BB681B781A017B6B13440B
:103C900003F204433B633B6B00221A80FB681B6802
:103CA0007B62BB685B78002B26D1FB681B68FB61DD
:103CB000FB681B68B3F850309BB21A46FB6913448B
:103CC000FB61BB681B781A01FB69134403F20C43C8
:103CD000BB61BB691B889BB2C3F309039AB2BB6982
:103CE0001A80BB691B889BB26FEA43436FEA534358
:103CF0009AB2BB691A8017E0BB685B78012B13D1BD
:103D0000FB681B68B3F850309BB21A467B6A1344B9
:103D10007B62BB681B781A017B6A134403F20C4375
:103D20003B623B6A00221A80BB681B781946F86820
:103D300007F097FCFB8803F48043002B00F0FC8223
:103D4000FB681B681A46BB681B789B0013441B88E2
:103D50009BB223F4E04323F07003FB82FB681B68F3
:103D60001A46BB681B789B001A44FB8A43F07F43CA
:103D700043F47F0343F4404343F080039BB213803A
:103D8000DAE2FB8803F48043002B21D0FB681B6838
:103D90001A46BB681B789B0013441B889BB223F414
:103DA000E04323F07003A7F88A30FB681B681A46CB
:103DB000BB681B789B001A44B7F88A3043F07F43F6
:103DC00043F47F0343F4404343F080039BB21380EA
:103DD000BB6893F82430012B40F0AE82BB685A696F
:103DE000B7F886301A44BB685A61BB68DA69B7F81D
:103DF00086301A44BB68DA61BB681A6ABB681B6903
:103E00009A420BD3BB681B69C7F88C30BB681A6A2F
:103E1000D7F88C30D21ABB681A6217E0BB681B6AED
:103E2000002B08D1B7F88630C7F88C30BB68002269
:103E300083F824200AE0BB68002283F82420BB68B2
:103E40001B6AC7F88C30BB6800221A62BB685B78BB
:103E5000002B65D1FB681B68FB63FB681B68B3F82C
:103E600050309BB21A46FB6B1344FB63BB681B7854
:103E70001A01FB6B134403F20443BB63BB6B1B8847
:103E80009BB2C3F309039AB2BB6B1A80D7F88C308C
:103E90003E2B1DD9D7F88C305B09BB64D7F88C302A
:103EA00003F01F03002B02D1BB6C013BBB64BB6B57
:103EB0001B889AB2BB6C9BB29B029BB213439BB212
:103EC0006FEA43436FEA53439AB2BB6B1A8044E0F4
:103ED000D7F88C30002B0AD1BB6B1B889BB26FEAE2
:103EE00043436FEA53439AB2BB6B1A8035E0D7F86D
:103EF0008C305B08BB64D7F88C3003F00103002BD7
:103F000002D0BB6C0133BB64BB6B1B889AB2BB6C29
:103F10009BB29B029BB213439AB2BB6B1A801CE00C
:103F2000BB685B78012B18D1FB681B687B64FB685E
:103F30001B68B3F850309BB21A467B6C13447B6409
:103F4000BB681B781A017B6C134403F204433B6487
:103F5000D7F88C309AB23B6C1A80FB681868BB6843
:103F60005969BB681A89D7F88C309BB205F052FDAD
:103F7000E2E1FB681B68B3F850309BB21A46BB689D
:103F80001B78DB00134406335B00FA6812681344A5
:103F900003F580631B88C3F30903A7F88630BB6869
:103FA0009A69B7F886309A4207D3BB689A69B7F81E
:103FB0008630D21ABB689A6102E0BB6800229A611F
:103FC000BB689B69002B40F0C080BB685B78002B0E
:103FD00026D1FB681B68FB67FB681B68B3F8503091
:103FE0009BB21A46FB6F1344FB67BB681B781A0130
:103FF000FB6F134403F20443BB67BB6F1B889BB288
:10400000C3F309039AB2BB6F1A80BB6F1B889BB2C4
:104010006FEA43436FEA53439AB2BB6F1A801AE0C8
:10402000BB685B78012B16D1FB681B687B66FB685D
:104030001B68B3F850309BB21A467B6E13447B6604
:10404000BB681B781A017B6E134403F204433B6682
:104050003B6E00221A80FB681B687B67BB685B783D
:10406000002B2BD1FB681B68FB66FB681B68B3F851
:1040700050309BB21A46FB6E1344FB66BB681B783C
:104080001A01FB6E134403F20C43C7F88030D7F8D3
:1040900080301B889BB2C3F309039AB2D7F88030F3
:1040A0001A80D7F880301B889BB26FEA43436FEACF
:1040B00053439AB2D7F880301A8017E0BB685B7818
:1040C000012B13D1FB681B68B3F850309BB21A4622
:1040D0007B6F13447B67BB681B781A017B6F1344AB
:1040E00003F20C433B673B6F00221A80BB681B78CE
:1040F0001946F86807F0B5FAFB8803F48043002BF3
:1041000040F01A81FB681B681A46BB681B789B004D
:1041100013441B889BB223F4E04323F07003A7F8F9
:104120008830FB681B681A46BB681B789B001A44E2
:10413000B7F8883043F07F4343F47F0343F44043B0
:1041400043F080039BB21380F6E0FB8803F48043C6
:10415000002B21D1FB681B681A46BB681B789B00AB
:1041600013441B889BB223F4E04323F07003A7F8A9
:104170004E30FB681B681A46BB681B789B001A44CC
:10418000B7F84E3043F07F4343F47F0343F440439A
:1041900043F080039BB21380BB6893F82430012B5B
:1041A00040F0CA80BB685A69B7F886301A44BB68C9
:1041B0005A61BB68DA69B7F886301A44BB68DA61BD
:1041C000BB681A6ABB681B699A420BD3BB681B6940
:1041D000C7F88C30BB681A6AD7F88C30D21ABB6823
:1041E0001A6217E0BB681B6A002B08D1B7F886304B
:1041F000C7F88C30BB68002283F824200AE0BB6833
:104200001B6AC7F88C30BB6800221A62BB680022A8
:1042100083F82420FB681B687B65BB685B78002BF8
:1042200065D1FB681B68FB65FB681B68B3F8503001
:104230009BB21A46FB6D1344FB65BB681B781A01E1
:10424000FB6D134403F20C43BB65BB6D1B889BB233
:10425000C3F309039AB2BB6D1A80D7F88C303E2B9A
:104260001DD9D7F88C305B09BB66D7F88C3003F0CA
:104270001F03002B02D1BB6E013BBB66BB6D1B88CD
:104280009AB2BB6E9BB29B029BB213439BB26FEA86
:1042900043436FEA53439AB2BB6D1A8041E0D7F8AB
:1042A0008C30002B0AD1BB6D1B889BB26FEA434355
:1042B0006FEA53439AB2BB6D1A8032E0D7F88C3064
:1042C0005B08BB66D7F88C3003F00103002B02D0EB
:1042D000BB6E0133BB66BB6D1B889AB2BB6E9BB2D3
:1042E0009B029BB213439AB2BB6D1A8019E0BB6864
:1042F0005B78012B15D1FB681B68B3F850309BB27B
:104300001A467B6D13447B65BB681B781A017B6D75
:10431000134403F20C433B65D7F88C309AB23B6DE3
:104320001A80FB681868BB685969BB685A89D7F856
:104330008C309BB205F06EFBFB681B681A46BB68AD
:104340001B789B0013441B889BB223F4E04323F0AB
:104350004003BB82BB8A83F01003BB82BB8A83F01D
:104360002003BB82FB681B681A46BB681B789B0056
:104370001A44BB8A43F07F4343F47F0343F4004372
:1043800043F080039BB21380002318469037BD464C
:1043900080BD80B487B000AFF8607B600B467B8146
:1043A00013463B817B8903F080039BB2002B0BD02B
:1043B0007B8903F007035A1C13469B001344DB0060
:1043C000FA6813447B6109E07A8913469B00134421
:1043D000DB0003F5B473FA6813447B613B89002B5F
:1043E00007D17B6900221A737B689AB27B69DA80F5
:1043F0000BE07B6901221A737B689AB27B691A8190
:104400007B681B0C9AB27B695A81002318461C37C3
:10441000BD465DF8047B704780B5ADF5007D00AF0B
:1044200007F50073A3F5FE73186007F50073A3F595
:10443000FE731B68002B02D1012301F023B807F59E
:104440000073A3F5FE731B681B6803F00103002BC8
:1044500000F07D81BC4B5B6803F00C03042B0CD097
:10446000B94B5B6803F00C03082B5CD1B64B5B685F
:1044700003F48033B3F5803F55D14FF40033C7F8D0
:10448000F031D7F8F03193FAA3F3C7F8EC31D7F84D
:10449000EC31B3FA83F3DBB25B09DBB243F0010327
:1044A000DBB2012B02D1A84B1B6815E04FF400339F
:1044B000C7F8E831D7F8E83193FAA3F3C7F8E43145
:1044C0004FF40033C7F8E031D7F8E03193FAA3F3A3
:1044D000C7F8DC319C4B5B6A4FF40032C7F8D82137
:1044E000D7F8D82192FAA2F2C7F8D421D7F8D4216C
:1044F000B2FA82F2D2B242F02002D2B202F01F022D
:10450000012101FA02F21340002B00F01F8107F590
:104510000073A3F5FE731B685B68002B40F01681E7
:10452000012300F0AFBF07F50073A3F5FE731B680E
:104530005B68B3F5803F06D1834B1B68824A43F426
:104540008033136036E007F50073A3F5FE731B6834
:104550005B68002B0CD17C4B1B687B4A23F48033B7
:104560001360794B1B68784A23F48023136021E0A1
:1045700007F50073A3F5FE731B685B68B3F5A02F06
:104580000CD1714B1B68704A43F4802313606E4B4F
:104590001B686D4A43F4803313600BE06A4B1B6861
:1045A000694A23F480331360674B1B68664A23F41F
:1045B00080231360644BDB6A23F00F0207F500735E
:1045C000A3F5FE731B689B685F491343CB6207F535
:1045D0000073A3F5FE731B685B68002B59D0FDF7D1
:1045E0002FF9C7F8F8010AE0FDF72AF90246D7F8D3
:1045F000F831D31A642B02D9032300F043BF4FF4E0
:104600000033C7F8D031D7F8D03193FAA3F3C7F805
:10461000CC31D7F8CC31B3FA83F3DBB25B09DBB230
:1046200043F00103DBB2012B02D1474B1B6815E0BD
:104630004FF40033C7F8C831D7F8C83193FAA3F361
:10464000C7F8C4314FF40033C7F8C031D7F8C031D0
:1046500093FAA3F3C7F8BC313B4B5B6A4FF40032CB
:10466000C7F8B821D7F8B82192FAA2F2C7F8B42156
:10467000D7F8B421B2FA82F2D2B242F02002D2B21A
:1046800002F01F02012101FA02F21340002BABD00D
:104690005DE0FDF7D5F8C7F8F8010AE0FDF7D0F8BE
:1046A0000246D7F8F831D31A642B02D9032300F05D
:1046B000E9BE4FF40033C7F8B031D7F8B03193FA00
:1046C000A3F3C7F8AC31D7F8AC31B3FA83F3DBB25C
:1046D0005B09DBB243F00103DBB2012B02D11A4BC1
:1046E0001B6815E04FF40033C7F8A831D7F8A8319C
:1046F00093FAA3F3C7F8A4314FF40033C7F8A031FD
:10470000D7F8A03193FAA3F3C7F89C310E4B5B6A3C
:104710004FF40032C7F89821D7F8982192FAA2F204
:10472000C7F89421D7F89421B2FA82F2D2B242F0BB
:104730002002D2B202F01F02012101FA02F213405C
:10474000002BABD103E000BF0010024000BF07F513
:104750000073A3F5FE731B681B6803F00203002BB4
:1047600000F07D81A64B5B6803F00C03002B0BD09F
:10477000A34B5B6803F00C03082B72D1A04B5B6862
:1047800003F48033002B6CD10223C7F89031D7F8A3
:10479000903193FAA3F3C7F88C31D7F88C31B3FA80
:1047A00083F3DBB25B09DBB243F00103DBB2012B25
:1047B00002D1934B1B6813E00223C7F88831D7F866
:1047C000883193FAA3F3C7F884310223C7F8803104
:1047D000D7F8803193FAA3F3C7F87C31884B5B6A32
:1047E0000222C7F87821D7F8782192FAA2F2C7F806
:1047F0007421D7F87421B2FA82F2D2B242F02002C8
:10480000D2B202F01F02012101FA02F21340002B82
:104810000AD007F50073A3F5FE731B681B69012B13
:1048200002D0012300F02EBE754B1B6823F0F80266
:1048300007F50073A3F5FE731B685B69F821C7F8E1
:104840007011D7F8701191FAA1F1C7F86C11D7F86F
:104850006C11B1FA81F1C9B28B40694913430B6005
:10486000FDE007F50073A3F5FE731B681B69002BC1
:1048700000F088800123C7F86831D7F8683193FACF
:10488000A3F3C7F86431D7F86431B3FA83F3DBB22A
:1048900003F1845303F584139B001A46012313602C
:1048A000FCF7CEFFC7F8F8010AE0FCF7C9FF0246A3
:1048B000D7F8F831D31A022B02D9032300F0E2BD56
:1048C0000223C7F86031D7F8603193FAA3F3C7F831
:1048D0005C31D7F85C31B3FA83F3DBB25B09DBB24E
:1048E00043F00103DBB2012B02D1454B1B6813E0FF
:1048F0000223C7F85831D7F8583193FAA3F3C7F811
:1049000054310223C7F85031D7F8503193FAA3F34A
:10491000C7F84C313A4B5B6A0222C7F84821D7F8F6
:10492000482192FAA2F2C7F84421D7F84421B2FAFA
:1049300082F2D2B242F02002D2B202F01F02012172
:1049400001FA02F21340002BAFD02D4B1B6823F06D
:10495000F80207F50073A3F5FE731B685B69F82185
:10496000C7F84011D7F8401191FAA1F1C7F83C11EE
:10497000D7F83C11B1FA81F1C9B28B4020491343F9
:104980000B606CE00123C7F83831D7F8383193FA5F
:10499000A3F3C7F83431D7F83431B3FA83F3DBB279
:1049A00003F1845303F584139B001A46002313601C
:1049B000FCF746FFC7F8F8010AE0FCF741FF0246A2
:1049C000D7F8F831D31A022B02D9032300F05ABDCD
:1049D0000223C7F83031D7F8303193FAA3F3C7F880
:1049E0002C31D7F82C31B3FA83F3DBB25B09DBB29D
:1049F00043F00103DBB2012B04D1014B1B6815E02E
:104A0000001002400223C7F82831D7F8283193FA62
:104A1000A3F3C7F824310223C7F82031D7F8203197
:104A200093FAA3F3C7F81C31C84B5B6A0222C7F89C
:104A30001821D7F8182192FAA2F2C7F81421D7F852
:104A40001421B2FA82F2D2B242F02002D2B202F0C3
:104A50001F02012101FA02F21340002BADD107F52C
:104A60000073A3F5FE731B681B6803F00803002B9B
:104A700000F0108107F50073A3F5FE731B689B69B6
:104A8000002B79D00123C7F81031D7F8103193FAF1
:104A9000A3F3C7F80C31D7F80C31B3FA83F3DBB2C8
:104AA0001A46AB4B13449B001A4601231360FCF7D4
:104AB000C7FEC7F8F8010AE0FCF7C2FE0246D7F8C5
:104AC000F831D31A022B02D9032300F0DBBC0223F6
:104AD000C7F80831D7F8083193FAA3F3C7F80431BF
:104AE00007F50073A3F5807302221A6007F50073BF
:104AF000A3F580731B6893FAA3F207F50073A3F57F
:104B000082731A6007F50073A3F5847302221A609A
:104B100007F50073A3F584731B6893FAA3F207F5F6
:104B20000073A3F586731A60884B5A6A07F5007301
:104B3000A3F588730221196007F50073A3F5887344
:104B40001B6893FAA3F107F50073A3F58A73196044
:104B500007F50073A3F58A731B68B3FA83F3DBB21E
:104B600043F06003DBB203F01F03012101FA03F3FA
:104B70001340002BA0D08DE007F50073A3F58C73D4
:104B800001221A6007F50073A3F58C731B6893FA72
:104B9000A3F207F50073A3F58E731A6007F500738F
:104BA000A3F58E731B68B3FA83F3DBB21A46684B26
:104BB00013449B001A4600231360FCF741FEC7F81C
:104BC000F8010AE0FCF73CFE0246D7F8F831D31AA8
:104BD000022B02D9032300F055BC07F50073A3F59F
:104BE000907302221A6007F50073A3F590731B6897
:104BF00093FAA3F207F50073A3F592731A6007F511
:104C00000073A3F5947302221A6007F50073A3F5ED
:104C100094731B6893FAA3F207F50073A3F59673D8
:104C20001A6007F50073A3F5987302221A6007F55E
:104C30000073A3F598731B6893FAA3F207F500734A
:104C4000A3F59A731A60414B5A6A07F50073A3F5EE
:104C50009C730221196007F50073A3F59C731B6810
:104C600093FAA3F107F50073A3F59E73196007F596
:104C70000073A3F59E731B68B3FA83F3DBB243F0B2
:104C80006003DBB203F01F03012101FA03F31340B9
:104C9000002B97D107F50073A3F5FE731B681B6803
:104CA00003F00403002B00F0A181002387F8FF31FB
:104CB000264BDB6903F08053002B16D1234BDB69B5
:104CC000224A43F08053D361204BDB6903F08052CA
:104CD00007F50073A3F5FC731A6007F50073A3F5DD
:104CE000FC731B68012387F8FF311A4B1B6803F420
:104CF0008073002B1AD1174B1B68164A43F480733C
:104D00001360FCF79DFDC7F8F80109E0FCF798FD7A
:104D10000246D7F8F831D31A642B01D90323B1E343
:104D20000C4B1B6803F48073002BEFD007F5007366
:104D3000A3F5FE731B68DB68012B0DD1034B1B6AC7
:104D4000024A43F0010313623CE000BF001002403E
:104D5000208190100070004007F50073A3F5FE73EA
:104D60001B68DB68002B0CD1C14B1B6AC04A23F0C7
:104D700001031362BE4B1B6ABD4A23F00403136296
:104D800020E007F50073A3F5FE731B68DB68052BB5
:104D90000CD1B74B1B6AB64A43F004031362B44B01
:104DA0001B6AB34A43F0010313620BE0B04B1B6A6A
:104DB000AF4A23F001031362AD4B1B6AAC4A23F0E8
:104DC0000403136207F50073A3F5FE731B68DB6829
:104DD000002B00F08180FCF733FDC7F8F8010BE0F1
:104DE000FCF72EFD0246D7F8F831D31A41F288328B
:104DF000934201D9032345E307F50073A3F5A0739C
:104E000002221A6007F50073A3F5A0731B6893FADA
:104E1000A3F207F50073A3F5A2731A6007F50073F8
:104E2000A3F5A47302221A6007F50073A3F5A47317
:104E30001B6893FAA3F207F50073A3F5A6731A6033
:104E400007F50073A3F5A6731B68B3FA83F3DBB20F
:104E50005B09DBB243F00203DBB2022B02D1844BCD
:104E60001B6A13E007F50073A3F5A87302221A600A
:104E700007F50073A3F5A8731B6893FAA3F207F56F
:104E80000073A3F5AA731A60794B5B6A07F5007289
:104E9000A2F5AC720221116007F50072A2F5AC72A6
:104EA000126892FAA2F107F50072A2F5AE721160D3
:104EB00007F50072A2F5AE721268B2FA82F2D2B2AF
:104EC00042F04002D2B202F01F02012101FA02F2C6
:104ED0001340002B84D07FE0FCF7B2FCC7F8F80148
:104EE0000BE0FCF7ADFC0246D7F8F831D31A41F2DB
:104EF0008832934201D90323C4E207F50073A3F576
:104F0000B07302221A6007F50073A3F5B0731B6833
:104F100093FAA3F207F50073A3F5B2731A6007F5CD
:104F20000073A3F5B47302221A6007F50073A3F5AA
:104F3000B4731B6893FAA3F207F50073A3F5B67375
:104F40001A6007F50073A3F5B6731B68B3FA83F311
:104F5000DBB25B09DBB243F00203DBB2022B02D10E
:104F6000434B1B6A13E007F50073A3F5B8730222E5
:104F70001A6007F50073A3F5B8731B6893FAA3F2E0
:104F800007F50073A3F5BA731A60394B5B6A07F52E
:104F90000072A2F5BC720221116007F50072A2F541
:104FA000BC72126892FAA2F107F50072A2F5BE7205
:104FB000116007F50072A2F5BE721268B2FA82F2B1
:104FC000D2B242F04002D2B202F01F02012101FA35
:104FD00002F21340002B84D197F8FF31012B05D149
:104FE000234BDB69224A23F08053D36107F500731A
:104FF000A3F5FE731B68DB69002B00F042821C4B9B
:105000005B6803F00C03082B00F0138207F50073B4
:10501000A3F5FE731B68DB69022B40F0628107F584
:105020000073A3F5C0734FF080721A6007F5007328
:10503000A3F5C0731B6893FAA3F207F50073A3F5F9
:10504000C2731A6007F50073A3F5C2731B68B3FA45
:1050500083F3DBB203F1845303F584139B001A46F8
:1050600000231360FCF7ECFBC7F8F8010CE000BF6D
:1050700000100240FCF7E4FB0246D7F8F831D31ADF
:10508000022B01D90323FDE107F50073A3F5C473D7
:105090004FF000721A6007F50073A3F5C4731B6824
:1050A00093FAA3F207F50073A3F5C6731A6007F528
:1050B0000073A3F5C6731B68B3FA83F3DBB25B0915
:1050C000DBB243F00103DBB2012B02D1B04B1B6812
:1050D00027E007F50073A3F5C8734FF000721A605C
:1050E00007F50073A3F5C8731B6893FAA3F207F5DD
:1050F0000073A3F5CA731A6007F50073A3F5CC73A8
:105100004FF000721A6007F50073A3F5CC731B68AB
:1051100093FAA3F207F50073A3F5CE731A609C4BC4
:105120005B6A07F50072A2F5D0724FF00071116052
:1051300007F50072A2F5D072126892FAA2F107F593
:105140000072A2F5D272116007F50072A2F5D27258
:105150001268B2FA82F2D2B242F02002D2B202F067
:105160001F02012101FA02F21340002B82D1884B69
:105170005B6823F4741207F50073A3F5FE731B68D4
:10518000596A07F50073A3F5FE731B681B6A0B438E
:105190007F4913434B6007F50073A3F5D4734FF0B9
:1051A00080721A6007F50073A3F5D4731B6893FA35
:1051B000A3F207F50073A3F5D6731A6007F5007321
:1051C000A3F5D6731B68B3FA83F3DBB203F1845300
:1051D00003F584139B001A4601231360FCF730FB90
:1051E000C7F8F80109E0FCF72BFB0246D7F8F831C5
:1051F000D31A022B01D9032344E107F50073A3F569
:10520000D8734FF000721A6007F50073A3F5D873D6
:105210001B6893FAA3F207F50073A3F5DA731A601B
:1052200007F50073A3F5DA731B68B3FA83F3DBB2F7
:105230005B09DBB243F00103DBB2012B02D1544B1B
:105240001B6827E007F50073A3F5DC734FF00072CD
:105250001A6007F50073A3F5DC731B6893FAA3F2D9
:1052600007F50073A3F5DE731A6007F50073A3F565
:10527000E0734FF000721A6007F50073A3F5E07356
:105280001B6893FAA3F207F50073A3F5E2731A60A3
:105290003F4B5B6A07F50072A2F5E4724FF00071B4
:1052A000116007F50072A2F5E472126892FAA2F199
:1052B00007F50072A2F5E672116007F50072A2F51B
:1052C000E6721268B2FA82F2D2B242F02002D2B290
:1052D00002F01F02012101FA02F21340002B82D0DA
:1052E000CFE007F50073A3F5E8734FF080721A6002
:1052F00007F50073A3F5E8731B6893FAA3F207F5AB
:105300000073A3F5EA731A6007F50073A3F5EA7357
:105310001B68B3FA83F3DBB203F1845303F5841300
:105320009B001A4600231360FCF78AFAC7F8F801BD
:1053300009E0FCF785FA0246D7F8F831D31A022BB8
:1053400001D903239EE007F50073A3F5EC734FF03A
:1053500000721A6007F50073A3F5EC731B6893FAEB
:10536000A3F207F50073A3F5EE731A6007F5007357
:10537000A3F5EE731B68B3FA83F3DBB25B09DBB210
:1053800043F00103DBB2012B04D1014B1B6829E080
:105390000010024007F50073A3F5F0734FF00072A0
:1053A0001A6007F50073A3F5F0731B6893FAA3F274
:1053B00007F50073A3F5F2731A6007F50073A3F500
:1053C000F4734FF000721A6007F50073A3F5F473DD
:1053D0001B6893FAA3F207F50073A3F5F6731A603E
:1053E0002B4B5B6A07F50072A2F5F8724FF0007163
:1053F000116007F50072A2F5F872126892FAA2F134
:1054000007F50072A2F5FA72116007F50072A2F5B5
:10541000FA721268B2FA82F2D2B242F02002D2B22A
:1054200002F01F02012101FA02F21340002B80D189
:1054300027E007F50073A3F5FE731B68DB69012BFA
:1054400001D101231EE0124B5B68C7F8F431D7F895
:10545000F43103F4803207F50073A3F5FE731B6883
:105460001B6A9A420BD1D7F8F43103F4701207F596
:105470000073A3F5FE731B685B6A9A4201D0012397
:1054800000E00023184607F50077BD4680BD00BF49
:105490000010024080B59EB000AF786039600023F4
:1054A0007B677B68002B01D1012362E1904B1B6875
:1054B00003F007033A689A4210D98D4B1B6823F01A
:1054C00007028B493B6813430B60894B1B6803F051
:1054D00007033A689A4201D001234AE17B681B68BE
:1054E00003F00203002B08D0824B5B6823F0F0022C
:1054F0007B689B687F4913434B607B681B6803F0A4
:105500000103002B00F0DC807B685B68012B3CD141
:105510004FF400333B673B6F93FAA3F3FB66FB6EDC
:10552000B3FA83F3DBB25B09DBB243F00103DBB216
:10553000012B02D16F4B1B680FE04FF40033BB66A9
:10554000BB6E93FAA3F37B664FF400333B663B6E6E
:1055500093FAA3F3FB65674B5B6A4FF40032BA65BD
:10556000BA6D92FAA2F27A657A6DB2FA82F2D2B28A
:1055700042F02002D2B202F01F02012101FA02F22F
:105580001340002B7BD10123F3E07B685B68022B87
:105590003CD14FF000733B653B6D93FAA3F3FB6482
:1055A000FB6CB3FA83F3DBB25B09DBB243F00103BC
:1055B000DBB2012B02D14F4B1B680FE04FF00073A1
:1055C000BB64BB6C93FAA3F37B644FF000733B6442
:1055D0003B6C93FAA3F3FB63464B5B6A4FF000729C
:1055E000BA63BA6B92FAA2F27A637A6BB2FA82F277
:1055F000D2B242F02002D2B202F01F02012101FA1F
:1056000002F21340002B3AD10123B2E002233B63A4
:105610003B6B93FAA3F3FB62FB6AB3FA83F3DBB24F
:105620005B09DBB243F00103DBB2012B02D1314B4A
:105630001B680DE00223BB62BB6A93FAA3F37B6293
:1056400002233B623B6A93FAA3F3FB61294B5B6A3B
:105650000222BA61BA6992FAA2F27A617A69B2FA5E
:1056600082F2D2B242F02002D2B202F01F02012135
:1056700001FA02F21340002B01D1012379E01D4B06
:105680005B6823F003027B685B681A4913434B6035
:10569000FCF7D6F878670AE0FCF7D2F802467B6F91
:1056A000D31A41F28832934201D9032361E0114BAE
:1056B0005B6803F00C027B685B689B009A42EBD14D
:1056C0000B4B1B6803F007033A689A4214D2084B4D
:1056D0001B6823F0070206493B6813430B60044B29
:1056E0001B6803F007033A689A4205D0012340E0A3
:1056F00000200240001002407B681B6803F0040396
:10570000002B08D01D4B5B6823F4E0627B68DB68EC
:105710001A4913434B607B681B6803F00803002B96
:1057200009D0164B5B6823F460527B681B69DB0071
:10573000124913434B6000F029F801460F4B5B6898
:1057400003F0F003F0223A613A6992FAA2F2FA60A9
:10575000FA68B2FA82F2D2B2D340094AD35C21FA93
:1057600003F3084A1360084B1B681846FCF724F83B
:10577000002318467837BD4680BD00BF00100240A8
:10578000F8E80008000000200400002080B48BB07E
:1057900000AF0023FB610023BB6100237B62002379
:1057A0007B6100233B62294B5B68FB61FB6903F073
:1057B0000C03042B02D0082B03D03CE0244B3B62AB
:1057C0003CE0FB6903F470134FF47012BA60BA68DE
:1057D00092FAA2F27A607A68B2FA82F2D2B2D34036
:1057E0001C4AD35C7B61194BDB6A03F00F030F2269
:1057F0003A613A6992FAA2F2FA60FA68B2FA82F26F
:10580000D2B2D340144AD35CBB61FB6903F480334A
:10581000002B08D00E4ABB69B2FBF3F27B6902FB96
:1058200003F37B6204E07B690C4A02FB03F37B62B7
:105830007B6A3B6202E0064B3B6200BF3B6A184654
:105840002C37BD465DF8047B704700BF0010024056
:1058500000127A0010E9000820E9000800093D0064
:1058600080B400AF034B1B681846BD465DF8047B4F
:10587000704700BF0000002080B582B000AFFFF786
:10588000EFFF01460B4B5B6803F4E0634FF4E0620B
:105890007A607A6892FAA2F23A603A68B2FA82F2D0
:1058A000D2B2D340044AD35C21FA03F31846083736
:1058B000BD4680BD0010024008E9000880B582B0F6
:1058C00000AFFFF7CDFF01460B4B5B6803F460535D
:1058D0004FF460527A607A6892FAA2F23A603A68BB
:1058E000B2FA82F2D2B2D340044AD35C21FA03F373
:1058F00018460837BD4680BD0010024008E9000880
:1059000080B592B000AF786000233B640023FB6356
:10591000002387F847307B681B6803F48033002B33
:1059200000F0D4804E4BDB6903F08053002B0ED186
:105930004B4BDB694A4A43F08053D361484BDB69E8
:1059400003F08053BB60BB68012387F84730454BA9
:105950001B6803F48073002B18D1424B1B68414A2B
:1059600043F480731360FBF76BFF386408E0FBF7C8
:1059700067FF02463B6CD31A642B01D9032369E10C
:10598000384B1B6803F48073002BF0D0344B1B6A38
:1059900003F44073FB63FB6B002B00F084807B6897
:1059A0005B6803F44073FA6B9A427CD02C4B1B6A01
:1059B00023F44073FB634FF480333B633B6B93FAF8
:1059C000A3F3FB62FB6AB3FA83F3DBB21A46264BFE
:1059D00013449B001A46012313604FF48033BB63CA
:1059E000BB6B93FAA3F37B637B6BB3FA83F3DBB2FA
:1059F0001A461D4B13449B001A4600231360184A95
:105A0000FB6B1362FB6B03F00103002B4BD0FBF726
:105A100017FF38640AE0FBF713FF02463B6CD31A0A
:105A200041F28832934201D9032313E10223BB627E
:105A3000BB6A93FAA3F37B6202233B623B6A93FA4D
:105A4000A3F3FB61FB69B3FA83F3DBB25B09DBB25F
:105A500043F00203DBB2022B08D1014B1B6A0DE0BD
:105A60000010024000700040008190100223BB61D2
:105A7000BB6993FAA3F37B61784B5B6A02223A61BC
:105A80003A6992FAA2F2FA60FA68B2FA82F2D2B2F3
:105A900042F04002D2B202F01F02012101FA02F2EA
:105AA0001340002BB7D06D4B1B6A23F440727B6808
:105AB0005B686A4913430B6297F84730012B05D1A5
:105AC000664BDB69654A23F08053D3617B681B68B2
:105AD00003F00103002B08D0604B1B6B23F0030283
